:020000040000fa
:080000000001040000000000f3
:020000040000fa
:040008002c030000c5
:020000040000fa
:04000c002c030000c1
:020000040000fa
:040010002c030000bd
:020000040000fa
:040014002c030000b9
:020000040000fa
:040018002c030000b5
:020000040000fa
:04001c002c030000b1
:020000040000fa
:040020002c030000ad
:020000040000fa
:040024002c030000a9
:020000040000fa
:04002800f0010000e3
:020000040000fa
:04002c002c030000a1
:020000040000fa
:040030002c0300009d
:020000040000fa
:040034002c03000099
:020000040000fa
:040038002c03000095
:020000040000fa
:04003c002c03000091
:020000040000fa
:04004000c4020000f6
:020000040000fa
:04004400180200009e
:020000040000fa
:040048002c03000085
:020000040000fa
:04004c002c03000081
:020000040000fa
:040050002c0300007d
:020000040000fa
:040054002c03000079
:020000040000fa
:040058002c03000075
:020000040000fa
:04005c002c03000071
:020000040000fa
:040060002c0300006d
:020000040000fa
:040064002c03000069
:020000040000fa
:040068005a02000038
:020000040000fa
:04006c002c03000061
:020000040000fa
:040070002c0300005d
:020000040000fa
:040074002c03000059
:020000040000fa
:040078002c03000055
:020000040000fa
:04007c0082020000fc
:020000040000fa
:040080002c0300004d
:020000040000fa
:040084002c03000049
:020000040000fa
:04008800e80200008a
:020000040000fa
:04008c000a03000063
:020000040000fa
:040090002c0300003d
:020000040000fa
:040094002c03000039
:020000040000fa
:040098002c03000035
:020000040000fa
:04009c002c03000031
:020000040000fa
:0400a0002c0300002d
:020000040000fa
:0400a4002c03000029
:020000040000fa
:0400a8002c03000025
:020000040000fa
:0400ac002c03000021
:020000040000fa
:0400b0002c0300001d
:020000040000fa
:0400b4002c03000019
:020000040000fa
:0400b8002c03000015
:020000040000fa
:0400bc002c03000011
:020000040000fa
:0400c0002c0300000d
:020000040000fa
:0400c4002c03000009
:020000040000fa
:0400c8002c03000005
:020000040000fa
:0400cc002c03000001
:020000040000fa
:0400d0002c030000fd
:020000040000fa
:0400d4002c030000f9
:020000040000fa
:0400d8002c030000f5
:020000040000fa
:040108002c030000c4
:020000040000fa
:04010c002c030000c0
:020000040000fa
:040110002c030000bc
:020000040000fa
:040114002c030000b8
:020000040000fa
:040118002c030000b4
:020000040000fa
:04011c002c030000b0
:020000040000fa
:040120002c030000ac
:020000040000fa
:040124002c030000a8
:020000040000fa
:04012800f0010000e2
:020000040000fa
:04012c002c030000a0
:020000040000fa
:040130002c0300009c
:020000040000fa
:040134002c03000098
:020000040000fa
:040138002c03000094
:020000040000fa
:04013c002c03000090
:020000040000fa
:04014000c4020000f5
:020000040000fa
:04014400180200009d
:020000040000fa
:040148002c03000084
:020000040000fa
:04014c002c03000080
:020000040000fa
:040150002c0300007c
:020000040000fa
:040154002c03000078
:020000040000fa
:040158002c03000074
:020000040000fa
:04015c002c03000070
:020000040000fa
:040160002c0300006c
:020000040000fa
:040164002c03000068
:020000040000fa
:040168005a02000037
:020000040000fa
:04016c002c03000060
:020000040000fa
:040170002c0300005c
:020000040000fa
:040174002c03000058
:020000040000fa
:040178002c03000054
:020000040000fa
:04017c0082020000fb
:020000040000fa
:040180002c0300004c
:020000040000fa
:040184002c03000048
:020000040000fa
:04018800e802000089
:020000040000fa
:04018c000a03000062
:020000040000fa
:040190002c0300003c
:020000040000fa
:040194002c03000038
:020000040000fa
:040198002c03000034
:020000040000fa
:04019c002c03000030
:020000040000fa
:0401a0002c0300002c
:020000040000fa
:0401a4002c03000028
:020000040000fa
:0401a8002c03000024
:020000040000fa
:0401ac002c03000020
:020000040000fa
:0401b0002c0300001c
:020000040000fa
:0401b4002c03000018
:020000040000fa
:0401b8002c03000014
:020000040000fa
:0401bc002c03000010
:020000040000fa
:0401c0002c0300000c
:020000040000fa
:0401c4002c03000008
:020000040000fa
:0401c8002c03000004
:020000040000fa
:0401cc002c03000000
:020000040000fa
:0401d0002c030000fc
:020000040000fa
:0401d4002c030000f8
:020000040000fa
:0401d8002c030000f4
:020000040000fa
:100200008f9a20000eff20000e01880000000000e1
:10021000000020000000e000020032000001200089
:1002200020028800140007000d0107000000e00014
:1002300003003a00e0ae2100010020000200370078
:100240000000200001002000810f7000010032003a
:1002500014000700000020000000e000020032004f
:1002600000000200000000001c120200000000005c
:100270000040da000000fe004440a90020042000f5
:100280000000e0000300320000002000a001880010
:100290004440a800000006008a1f78008b1f7800e9
:1002a0000000060091018800800478000000eb0047
:1002b0001a003700e284440032a0b4009905ba0065
:1002c000e284440032a0b4009906ba00e2844400fb
:1002d00032a0b4000006eb00476fde00fd07b2005d
:1002e000636ce10003003a00ebff07000000eb0045
:1002f0000a003700606ce10004003a00005deb008a
:100300008b05e900fdff3e00040037006168e10055
:10031000010032000086eb000b00070019c7ba008d
:100320001905ba000e04e00003003a000a00e000dc
:10033000e0ff3a0000000600fe07b2009e018800c0
:100340008a047800f5ff3700395dba008b05e900b3
:100350000c003200295dba008b05e900080032006c
:100360000c00e00003003a00e284440032a0b40034
:10037000f5ff370019ddba008b05e900faff3a00f6
:100380008904e800e184440032a0b40000000600c3
:10039000000000000000000000000000000000005d
:1003a000000000000000000000000000000000004d
:1003b000000000000000000000000000000000003d
:1003c000000000000000000000000000000000002d
:1003d000000000000000000000000000000000001d
:1003e0003600f800809fbe00829fbe00849fbe0042
:1003f000869fbe003400f80000002000a0018800a5
:100400008400a9008c00a9004101200030002000d8
:10041000ea0907003400f9004f03be004f02be0096
:100420004f01be004f00be003600f900004006003c
:100430003600f800809fbe00829fbe00849fbe00f1
:10044000869fbe003400f80000002000a001880054
:1004500084e0a90013e1a900db02ab0009003a0027
:100460008400a9008c00a8003400f9004f03be00ee
:100470004f02be004f01be004f00be003600f90023
:1004800000400600d0408000000001008400a90068
:100490008c00a8003400f9004f03be004f02be00dc
:1004a0004f01be004f00be003600f90000400600bc
:1004b000f4ff37003600f800809fbe00829fbe0028
:1004c000849fbe00869fbe003400f800000020001c
:1004d000a00188008600a9008e00a900410120002b
:1004e00040002000b50907003400f9004f03be00aa
:1004f0004f02be004f01be004f00be003600f900a3
:10050000004006003600f800809fbe00829fbe00bb
:10051000849fbe00869fbe003400f80000002000cb
:10052000a001880086a0a9001fe1a900d402ab00a9
:1005300009003a008600a9008e00a8003400f900e6
:100540004f03be004f02be004f01be004f00be0071
:100550003600f90000400600e04080000000010085
:100560008600a9008e00a8003400f9004f03be00e9
:100570004f02be004f01be004f00be003600f90022
:1005800000400600f4ff37003600f800809fbe00f0
:10059000829fbe00849fbe00869fbe003400f8008c
:1005a00000002000a001880084c0a90010002000e5
:1005b000350707003400f9004f03be004f02be00ac
:1005c0004f01be004f00be003600f900004006009b
:1005d0003600f800809fbe00829fbe00849fbe0050
:1005e000869fbe003400f80000002000a0018800b3
:1005f0008700a900990b07003400f9004f03be00e3
:100600004f02be004f01be004f00be003600f90091
:10061000004006003600f800809fbe00829fbe00aa
:10062000849fbe00869fbe003400f80000002000ba
:10063000a00188008720a900970b07003400f9006b
:100640004f03be004f02be004f01be004f00be0070
:100650003600f900004006000040da000000fe000d
:1006600000000500839f68000100e00002003d00db
:1006700060001000e08018000300e00002003d0070
:1006800060011100e08119005f0007004f00e000e9
:1006900002003b0060001000e0801800000006002f
:1006a00014002000bd033700f4ff2f00bb03370008
:1006b0000001be003f0007000470a70003f0a10086
:1006c0006509b100160032000d0035006828e10010
:1006d00006003500f0ff2f00f1ff27000300e000c7
:1006e00013003b000100280000000500000040004e
:1006f000818048008502e900fcff3a0008003700cd
:10070000f88f420002003c008000eb000000050072
:100710008100d1000080d3008502e800fcff3a0090
:100720000300e00002003b0060001000e0801800c1
:10073000000006000001be001e0007000470a700b4
:1007400003f0a10003f8a30013003a006509b1000b
:1007500010003200090035006928e1000200350070
:1007600001002800000005000000400081804800d2
:100770008502e900fcff3a0000000600f88f420005
:10078000050035008100d1000080d3008502e8001b
:10079000fcff3a00000006008000eb0000000500ae
:1007a0004f89de0082017800970337006011b8009e
:1007b000a5033700c70ade00f107b200f50fb2004b
:1007c00008003200e1cf4200020032000170a000b8
:1007d00024000500810f70000100320004080500ac
:1007e00044000500810f700002003a00140005006b
:1007f0008502e9000000400081c04800fcff3b008a
:100800000170a000240005006022b800060220004c
:100810000000d0008180d2000482d2008582d20004
:100820000000a0000202520083825a00030031003f
:100830000202420083824a000000a1000603e90090
:10084000f3ff3a000000060007f827000783610065
:100850000638e10004003a00f707200087836100b2
:100860008703710001003a0003f0a200889fbe00d8
:100870008a9fbe008c9fbe00470ade000480a10054
:10088000c71ade000580a100070028000785600068
:1008900087856100f70f20000720e1009e003200ed
:1008a0000728e1009c003200010678000400e00007
:1008b000b4003200f7072000878060000170a000bc
:1008c0000500e000c0003200f707200087816100ca
:1008d0000370a000050652000f003a000b50e10023
:1008e0000b0032000308e10002003a000200e100c0
:1008f0007e0032000204500083845800040031005e
:100900000001fd008101fd008402fd008a05fd005b
:100910006044b800210037000520e10005003d00db
:100920000001fd008101fd008402fd008a05fd003b
:10093000050652007a60e100050035000170a10053
:100940004722dd00848070008a80700063003700d9
:100950006044b800ef02660007ff2f00070666003c
:100960000500e00006003400f08312008714dd006b
:100970000511de00071bdd00060171008519de0090
:100980007060e100050035000904780082047800f9
:10099000030178008001eb00700656000b50e10067
:1009a00003003a0002004000838048000400370042
:1009b00060041400e0841c0002005800838058008a
:1009c0000188a300060032008100d1000080d3001e
:1009d0008984d3000884d3000402e800270037008c
:1009e0000178a30025003a000100e0000300320076
:1009f0008186cf00698656000a0037008c002000ef
:100a00000000e00004003a00090078008804780043
:100a10000004eb00700252008086cf000d064600f5
:100a20000c06e9007060e1000600350080007800e7
:100a300009007800880478000004eb007006560076
:100a4000700252000c00e0000c0034008c08dd0045
:100a5000f00316000703de00868070000c00dd0046
:100a6000074bde00060070008c4cdd000743de0003
:100a7000868474000c44dd000c0252006120e10009
:100a800020003500610160000700280087816400b4
:100a9000f7ff270087836400070374000300e0006a
:100aa0000600320082037300040032000000e800f8
:100ab000e08048000188a3000e003a00f70f2000f4
:100ac0000720e1004a003d000170a1004722dd003f
:100ad000810072008a8070000000be004f06be00d8
:100ae0004f05be004f04be00000006006000b800c5
:100af000faff37008100d1000080d3000402e80033
:100b0000eeff37000401780089017400a10107009d
:100b10008a807000f1ff3700f701070007027800b4
:100b20000001fd008101fd00f3010700870278004c
:100b3000850372000778a300040032000001fd0065
:100b40008101fd0006020700e4ff37008503620013
:100b50000768a300080032000b50e10003003200d8
:100b6000f0ff2f00f1ff2700dcff37000001fd0040
:100b70008101fd00d9ff37000468a300d7ff3200d0
:100b8000faff3700f8ff2700888360000b003a0067
:100b90000000e00009003a008303640082837300d0
:100ba000020032000200be00ccff37000b50e10013
:100bb000ceff3a000200be00c8ff3700140020003c
:100bc000810064003eff3700f8ff27008883610042
:100bd00004003a000200e00002003a008c007800b5
:100be000beff3700150020008301640039ff370085
:100bf00001f827000000200081007500b7ff3700d2
:100c0000889fbe008a9fbe008c9fbe001b002000f4
:100c10000202be000586680006002800060666007f
:100c20004709de00f20fb200820032000243e80002
:100c300080003200c729de00f30fb2007d003200d1
:100c40000343e8007b003200f107b2000170a0000e
:100c5000f507b2000570a000c708dd004903de00fb
:100c6000868070004700dd00c72add004923de00d2
:100c7000868272004722dd00030551000403500004
:100c80008583580003003100000040008180480047
:100c90000a05e9008c1f78008a9fbe0004005000fe
:100ca000858058000402420085824a00000040000e
:100cb000818048000005eb000004be006033b800ee
:100cc0000406be000d48e100560031001100090085
:100cd0004dccd8000c01b8000d02b8008481410051
:100ce00060824a008283530003045c0084845c00b9
:100cf00060055d000a00e00025003a0080057800ec
:100d00000d40e100490031008800780007007800bc
:100d1000110009004d88d8000c01b8000d02b80080
:100d20008481410060824a006003110083835b007c
:100d300004045c00e0845c000900e00021003a004b
:100d40004f01be000300e0002b003200e301600011
:100d5000070673008c81710001003200640070008e
:100d60004200de004e5edd000c007000c258de0066
:100d700001e0a00083010700cf01780081807100ad
:100d80004f06be004f05be004f04be000000060027
:100d90008c8343000d044c00e0844c0060054d0042
:100da0000000e9000a00e000d4ff32008c83430019
:100db0000d044c00e0844c0060054d000000e9008b
:100dc000ceff37000c0343008d834b0060044c00c2
:100dd000e0844c000000e9000900e000d8ff320088
:100de0000c0343008d834b0060044c00e0844c00f6
:100df0000000e900d2ff37004200de004e5edd0059
:100e00000c007000c258de0001e0a000cf017800a5
:100e10000300e000daff320060001000e0801800fc
:100e2000d7ff3700f0ff2f00aaff3700f0ff2f0099
:100e3000b9ff37000404be002f01070087067800c1
:100e40000004fd008104fd002b01070007836600fc
:100e50000678a300030032000960a7000800be0066
:100e60002c0037000d78a300020032000800be00fd
:100e7000280037000778a30026003a0001f0a100ff
:100e800009f0a1000668a30003003200f1ff27006b
:100e9000f0ff2f00baff37000d68a30003003200f7
:100ea0000800be008c807000b5ff37000768a30003
:100eb00007003a000648a30003003200f1ff2700b4
:100ec000f0ff2f00aeff37000d48a30003003200f3
:100ed0006000b8008c807000a9ff37000748a300ad
:100ee0000400320001f82700000020008c80700010
:100ef000a3ff3700760107000004fd008104fd0018
:100f000002057800720107000802be008a0178001d
:100f100059ff37000160a00012022000224d880016
:100f200097ff37000100e000120032000500e000ea
:100f300010003200889fbe008a9fbe008c9fbe00ba
:100f40000006eb0001f8a30003003200600010006f
:100f5000e08018000cf0a00005f8a30003003200a8
:100f600060021200e0821a000cf0a2008005eb0083
:100f700041ff37006000b8000200050003836800ed
:100f80000700280007036300470ade000480a10071
:100f9000c71ade000580a100f70f20000720e1003e
:100fa000420032000728e10040003200889fbe0066
:100fb0008a9fbe008c1f7800f107b200f307b200d1
:100fc0000400e000640032000170a0000500e000b1
:100fd000680032000370a00085054200eb07b100f5
:100fe0000204b8000302b8008484440060854a000b
:100ff000020ab800848444000a854a00030ab80043
:1010000004054500040033000804d0008984d200a0
:101010000a85d2008b05e9006158e1003d003500ea
:10102000021020000901610003082000898161008d
:10103000f70720008783640008867300c84cde0031
:10104000c853dd00878474004855de000300e000cb
:101050000600320082037600040032008904e800b2
:1010600060054d000a88a3000c003a00f70f20002d
:101070000758e10044003d000a70a100c75ddd0093
:101080000a8575008a007300090078004f06780011
:101090004f05be004f04be00000006000a05d10047
:1010a0008984d3008b05e800f0ff3700881f7800a3
:1010b0000604780090000700070278000001fd0098
:1010c0008101fd008c000700870278008503720013
:1010d0000778a300050032000001fd008101fd003a
:1010e0009f0007004f04780000000600850372008f
:1010f0000748a30003003200f0ff2f00f1ff270094
:10110000f8ff37000000200001f8270088807000f9
:10111000f4ff3700880178004848dd0080817100c5
:101120004848de00c850dd0001007000c850de00f5
:10113000060478000b017800160007008880700014
:10114000d2ff37000500e000050032001700200044
:101150003a0007009dff370081037000f9ff3a0055
:10116000860078004f0678004f05be004f04be0091
:101170000000050083037100f9ff32002700200002
:101180002e00070094ff370001f8270086807000ca
:10119000f4ff37000100e000260032006101110079
:1011a0007810e10023003c006022b8007010e100dc
:1011b0000400350080027800010078008000eb0018
:1011c000700151000200e0000900340070031100ba
:1011d000062add00822ade008603dd008782720097
:1011e0000200de00860bdd00070070008208de00d2
:1011f00084817100f4ff2700048262008481710001
:1012000004002800848262006102600005f0a600ec
:101210000000060004827100070032000000e800b0
:10122000e0804800000006000002be006000b80038
:10123000efff37006000b80000000600889fbe0086
:101240000004eb006138e10016003a000100e00004
:1012500008003a00c800de004800dd0088002000d9
:101260000100e00003003a00c800de004800dd0095
:10127000680444008184cf00e984540006003400ef
:101280008908dd00f08314008703de00878070008a
:101290000900dd0009044400610214004f04be008f
:1012a000000006000300e00008003a00c811de005c
:1012b0004811dd00880020000300e00003003a0030
:1012c000c811de004811dd00680444008384cf00ab
:1012d000e9845400060034008919dd00f08314000d
:1012e0008713de00878171000911dd0009044400c5
:1012f000e1021400e9ff37002700200001f0a700f9
:1013000017002000470bde00f60fb2000400320089
:101310000643e8000a0032004702b300000006005e
:1013200001037800f607b2000603700002003a00dd
:101330000703b300000006008702b30000000600a8
:1013400001037800f607b2000603700002003200c5
:101350000770a000000006000760a0000000060063
:101360000478a300040032000578a30003003200d3
:101370000168a30001003a000200be000160a00065
:101380000000060081017000270032008002eb009f
:1013900001f8a3000300320060001000e080180094
:1013a00015002000f4072000020242002000340053
:1013b000f703200087036000060420000003630099
:1013c00002082000000161004700de00c909dd00bd
:1013d00000807100c708de000600e000080032004f
:1013e00087037100060032001000b0000180b000d9
:1013f0000188a30002003200c108de000402e800f8
:10140000f107b200f30f20000320e10003003d00cc
:101410004722dd00810072002900370001f8270013
:101420000000eb00260037006000b8000000060056
:10143000680212007f20e100020034006000b80062
:101440001f0037006011b8007020e1000400350073
:1014500080017800010078008000eb0070025200eb
:101460000400e00009003400f00312000719dd0059
:101470008419de000703dd00868171000400de00b0
:10148000070bdd00060070008408de00f7ff270070
:101490008383630087037100060028000303630051
:1014a000070032000700e00003003a00610160001d
:1014b00002817300020032001000b0000180b00011
:1014c0000500a6000000060001f0a00000000600d4
:1014d0004f0ade004709de00f107b200f20fb2004a
:1014e0000b003200f207b1000170a000c708dd0058
:1014f000c901de00838070004700dd000400a60003
:101500000000060060001000e080180000000600e7
:10151000810f700001003a00000006008182cf00b8
:101520000500e00010003e008082cf00ee82420005
:101530007028e1000400390007003e0080007800b8
:101540000000eb000e003700708312008600de0002
:101550000500dd000a003700708352008600dd00c0
:101560000000eb0006003700e28252008508dd0033
:10157000708312000603de00868070000500dd0027
:101580007507b0000501ea000400a600000006008f
:1015900060001000e080180000000600889fbe0078
:1015a0008a9fbe00841f78007c0007004f007800ef
:1015b00011003300f0ff2f00838f6c0006003b000a
:1015c000040565000a00a7000800370009f0a6001e
:1015d0001000200008003700820f5400838f5c0049
:1015e000030039001000200001003e000000200030
:1015f00009f0a7000000ea004f05be004f04be003e
:101600000000e00000000600881f78000304780056
:101610000300e00007003d0060001000e0801800bb
:1016200060011900e081190002003b0001f02d006b
:10163000030037000400070008f0a70001f0a00035
:101640004f04780000000600889fbe008a9fbe00fd
:1016500000827000040271000482710026003200d2
:101660000004be000200be006011b8006b0920003b
:10167000950220000182cf000a0039000541b10027
:101680000082cf00070039000541b1000982cf0078
:10169000040039000541b1000882cf000100390083
:1016a0000541b10005425200120032000a003b0021
:1016b00082817100610164008100d1000080d3004b
:1016c0008984d3000884d3008b05e8000442e80035
:1016d000f7ff3a00070037000804440089844c00f3
:1016e00000004800818048008b05e9000442e900c1
:1016f000f9ff3a00030007004f05be004f04be008b
:101700000000060081002000618055000b003d00b4
:101710000b00200061fe2f000100e1001d003400dd
:1017200082817100610164008904d1000884d300c2
:101730000000e800faff3a00710020006100640038
:1017400003007000020060000900320061044400e0
:10175000e0844c000988a500050032008b05e800f4
:101760006808e10002003a008904d1000884d3002f
:10177000f20f20000258e10005003d00c75ddd00ca
:10178000f907b200898075000800780000000600a3
:101790000bf827008b007800000005000004be0055
:1017a00004fc07000003be000405be000200be00ea
:1017b00000fc0700844f750000000600354d8000d6
:1017c0000001eb000500e000320032000501780066
:1017d0008001eb00030278008300780002003700ec
:1017e000820178000601780012037800800f530010
:1017f00009003a000281e8000300e0000300320023
:101800001200780090019800220037001200780042
:10181000304d88001f003700800f5300060036004f
:101820000100e00002003200910f130002003600b8
:101830000302780082007800120390000600e000a6
:10184000e7ff3a000001eb000100e0001100320068
:10185000810178005301780011031000e40f530058
:101860000600360080087800008041008001780082
:101870008699e9008209780000017800818f520082
:1018800002003a00324d8800010037001202980031
:101890000181e80002007800000006000000e0007e
:1018a000180032000081e900314d80000100e000a5
:1018b000120032009201780003024000848f500031
:1018c00006003a001102900004087800918141005e
:1018d0000389e800324d88000000060011027800fc
:1018e0008482e80085824000850f510003003a00a1
:1018f000848141008388e800000006000108780028
:10190000324d880000000600889fbe000004be0023
:1019100008007800060007000000440089007800f5
:1019200026000700080078004f04be0000000600f3
:1019300080007800040037003104e00002003a0023
:101940000000510000000600010178000108a3001a
:10195000f9ff3a008101780031017800f4ef2f009f
:10196000020242000281ea0002016200040828002b
:1019700004016100f7ff3200830078000101780064
:101980003104e000fdff3a000000510000000600b5
:10199000810178000002780030417800b14f510099
:1019a00002003a000204e000f9ff3a009480fb00d4
:1019b0001380fb000080500000000600881f7800a4
:1019c0000004780008007800030007000800780091
:1019d0004f047800000006000101780080017800c3
:1019e000008268000408a3000500320013003700dd
:1019f00032407800805978000004e0001400320082
:101a0000030278000208a300f9ff3a0003007800ff
:101a1000010037000318780082007800b2017800d6
:101a2000f5ef2f00838242000382ea000482620005
:101a30000508280005026200f6ff32000002780067
:101a400031417800025878000204e000fbff3a00c0
:081a500004007800000006000c
:020000040000fa
:101a5800202000002020000020200000002000009e
:101a6800000000004300000054000000480000008f
:101a7800484c00005245000046000000484c000059
:101a8800454e000041000000454e000041000000a6
:101a98005354000041540000555300003a20000000
:101aa800202000002020000020200000202000002e
:101ab800005200003a2000002020000020200000f2
:101ac800202000002020000020200000202000000e
:041ad80020000000ea
:020000040000fa
:101adc0050168000610060000000a20051168000ca
:101aec000100a10081007000511688000000060062
:101afc0000408000e10f500002003200ca22a90011
:101b0c000000060050168000620060000000e90032
:101b1c004f00de0080004000501680000010a10035
:101b2c00008070005016880000000600a022a8005b
:101b3c00a002ab00feff3200001480008000eb001e
:101b4c0017fb070002002000a3ef230008fd07008d
:101b5c00020020008324240038fb07000001be0093
:101b6c00a0408000b14080003dfb0700a0408800f1
:101b7c00b14088001828ec0000000600889fbe00c9
:101b8c008a9fbe00290e800002002000032724003b
:101b9c00504080006140800016fc070002002000cd
:101bac0003f823002efb07000005be000004eb0029
:101bbc000900780088007800f9fa07000001be00df
:101bcc000a00be00eafc0700d7fa0700b00e880036
:101bdc00290e8000020020000327240070408000a2
:101bec008140800003fc07000200200003f8230062
:101bfc001bfb07000005be00090078008800780078
:101c0c00e7fa07000001be000a00be00d8fc07007e
:101c1c00c5fa0700c00e88004f05be004f04be0079
:101c2c0000000600014980008100e8001000280037
:101c3c000080600004003300004988001000200080
:101c4c0010498800000006000000e900e1ff2f00a9
:101c5c00008070000000e80000498800100020009f
:101c6c001049880000000600f7ff37007094200030
:101c7c00170637001208e20001003a0000000600c7
:101c8c004092200012063700d0408800d902a800ec
:101c9c008c00a8008ce0a80000000600e040880042
:101cac00d202a8008e00a8008ea0a800000006009a
:101cbc00ea874700889fbe008a9fbe008c9fbe00ab
:101ccc008e1f78000204be001208e20007003a00e2
:101cdc00409220004f0778004f06be004f05be0013
:101cec004f04be00af00b10000000600768757001d
:101cfc000202220003022200029fbe000202220006
:101d0c00020f780070875700004feb00a4992f004a
:101d1c0095472400a2992f0093472c0079040700c3
:101d2c000005be00a4992f0095472400a2992f000e
:101d3c0093472c000800be00720407000006be008a
:101d4c0013002000768157000a00be0092040700a1
:101d5c0080007800b092200015ff07004092200010
:101d6c00f0fe07004892200000004400c1c2b300fe
:101d7c00015878000048eb001300200076815700d2
:101d8c000c00be0084040700800078000800780076
:101d9c00dafe070008007800e2fe070000044400a9
:101dac00a0c2b300005c7800004ceb004092200015
:101dbc004f0778004f06be004f05be004f04be0013
:101dcc00af00b10000000600c8ff3700e8874700ed
:101ddc008e1f7800c0408000cf80de006dfa0700b7
:101dec000001be00a0408000b140800081fb0700d4
:101dfc00a4992f0095472400a2992f0093472c00fb
:101e0c0040040700688757000202220003022200e8
:101e1c00029fbe0002022000020f78001300200077
:101e2c00688157005c040700800078000094200053
:101e3c00dffe070090932000bafe070080007800b8
:101e4c009093200081004000a2c2b3008258780019
:101e5c008048eb001428ef001628ef001828ef003c
:101e6c004f0778008f00b10000000600d7ff070075
:101e7c0097053700ec874700889fbe008a1f7800c3
:101e8c008e1f78006f805700c1d228000600090011
:101e9c0031587800130020006f81570050408000ab
:101eac00614080003c04070080007800e094200032
:101ebc00bffe0700709420009afe07007894200063
:101ecc00cac2b300000044000a5878008044eb00fa
:101edc0009487800130020006f8157007040800083
:101eec00814080002c0407008000780008007800f6
:101efc0082fe0700080078008afe070000004400fc
:101f0c000a5878000948780030d3280072875700a7
:101f1c00105f780040d32800105f780050d3280061
:101f2c00104f78000040800001c3b3008140400096
:101f3c00e1ef9f00f2805700080078006ffe070069
:101f4c000800780077fe070000004400a1c2b3002f
:101f5c000158780009487800080078004f0778008d
:101f6c004f0578004f04be00cf00b1000000060002
:101f7c000400fa00889fbe008a1f780001057800d3
:101f8c00800078003096200089fe0700c095200064
:101f9c0064fe0700c895200000004400c1c2b300d5
:101fac00015878008044eb0009487800698057009c
:101fbc0041d328001158780051d3280011487800db
:101fcc0000c3b30000404500e0f79f00ea805700d3
:101fdc000800780049fe07000800780051fe070051
:101fec0000004400a1c2b3000158780009487800f1
:101ffc00080078004f0578004f04be000080fa00fe
:10200c0000000600e8874700889fbe008a9fbe003c
:10201c008e1f7800708757000002220001022200f8
:10202c00009fbe0008022000080f7800130020005b
:10203c00708157005040800061408000d60307003b
:10204c00800078006090200059fe0700609020000e
:10205c0034fe07006b902000bac3b300008045002b
:10206c000a587800085878008044eb00094878003a
:10207c001300200070815700704080008140800068
:10208c00c5030700800078000b0078001bfe0700da
:10209c00d4cc2c00752c2400d2cc2c00732c2c000e
:1020ac0010408000214080009603070013002000a0
:1020bc0070815700b8030700800078003091200031
:1020cc003bfe07003091200016fe07003b912000dc
:1020dc00008045000a5878000858780009487800b4
:1020ec00d4cc2c00752c2400d2cc2c00732c2c00be
:1020fc003040800041408000820307001300200024
:10210c0070815700a4030700800078000b00780052
:10211c00fafd070010002000104988004f077800d6
:10212c004f05be004f04be008f00b100000006003a
:10213c00889fbe008a9fbe008c9fbe000004be001c
:10214c000200be00184088002940880032408800f8
:10215c004340880002002000030a240084fb07008f
:10216c0080057800010578000200200003fa2300a6
:10217c000800be007efb0700800678000106780090
:10218c000d0178008c0178000b0078008a00780033
:10219c00aaf90700b29e2c008311240074fb0700df
:1021ac0080047800010478000c00be000101780066
:1021bc00800178000a02be000500780084007800d7
:1021cc00a7f90700b29e2c008311240068fb0700be
:1021dc000005be0009007800880078005040880097
:1021ec00614088000a00be00704088008140880071
:1021fc0004002000852424000200200083242c00ed
:10220c00a0802000140307000006780004002000c2
:10221c00852424000200200083242c00e080200070
:10222c000d030700110020000c00e00004003a0030
:10223c0000f0a7000000ea008000ea00cf08de00f2
:10224c00914088006fff07000aff07008a007800a2
:10225c000b00780001017800800178000802be00b4
:10226c00050078008400780091fe07004f06be0040
:10227c004f05be004f04be00000006000040880061
:10228c000008e2000700320000408000e10f50001f
:10229c001100320000408000e20f500006003200b6
:1022ac000000060011e1a8000621ef0061d3280010
:1022bc00800020000104370011e1a9000621ef0085
:1022cc006011b8000200be0099ff0700a1d32800de
:1022dc0080002000f90337006011b8000200be0036
:1022ec0093ff070081d3280080002000f303370000
:1022fc0020002000e1ff37000400fa00889fbe0098
:10230c008a1f78005c040700aa8320002208e200e0
:10231c001e003200ea805700e0812000cc03070049
:10232c00eff0970020832000bd0007000004780028
:10233c00e10f5400f5ff3a00c1d328004083200080
:10234c0090fd07000000e00016003a0000408000fd
:10235c00e20f50000f003200cabf9f006880570088
:10236c00380107000004be006880570035010700e3
:10237c000001be000800be006dff07000000eb006e
:10238c00beff07002208e200e2ff3a002209e20049
:10239c0013003a004f0578004f04be000080fa008d
:1023ac000000060021d428004083200075fd0700a2
:1023bc000000e000d5ff3a0000408000e20f500022
:1023cc00f4ff3a000000eb00acff07008800780037
:1023dc0080d42800e6fe07003d040700cbff370041
:1023ec0041002000b0012000d40307002009e200c6
:1023fc0009003a006190200030012000af03070073
:10240c002229ef004f0578004f04be000080fa002f
:10241c0000000600e3ff370031912000300120005e
:10242c00a60307002229ef00f6ff37007800fa0018
:10243c004106200010002000440407000001eb00be
:10244c00813e2000e0d6200044040700d2ff2f007c
:10245c00813e2000c0f3200040040700a2ff2f00a3
:10246c00813e200000e420003c0407000001eb004a
:10247c00810c2000c0e32000380407000081eb0031
:10248c00810c2000e0d72000340407000001eb0091
:10249c0041062000c0d92000300407000001eb00e9
:1024ac004106200040dc20002c0407000001eb005a
:1024bc00410620002018210028040700750307009e
:1024cc00c15d2000100020005b020700c1d4280071
:1024dc000000eb0079030700d1d528000001200093
:1024ec00760307002203200081f82f008f80400024
:1024fc00e08120000d03070062042000a1fb2f00e7
:10250c008f80400080822000080307008282200018
:10251c00e1812000002c2100b7030700e017210007
:10252c00d0408800d902a8008c00a8008ce0a8003c
:10253c0080e12000e0408800d202a8008e00a800b4
:10254c008ea0a80010002000904188000229ef0006
:10255c000429ef00c602a900c622a900c0ff2f0063
:10256c00c021b60030ff2f00c021b600c881a800e2
:10257c00c801a800c8a1a800c821a8002073200089
:10258c00200e8800d621ef00d821ef00f0f32f00a9
:10259c00cc21b60000fc2f00620e8000820060008f
:1025ac006100b300610e8800c1e1a800a402b6006e
:1025bc000030a00020158800a042a900000e2000c9
:1025cc00a022b700f00f2e00a402b60000c0a0009d
:1025dc0020158800f0cf2f00a222b60000ff2f009c
:1025ec00a602b6003000b3003015880070ff2f0033
:1025fc0040158800a1e2a8008cc0a80081382100f9
:10260c00200020006a0107000000eb001bff070000
:10261c00e50307000000eb000080fa000000060054
:10262c0010017800e20f510020003200e30f51003e
:10263c0010003200e10f5100030032000001eb00ea
:10264c0002007800000006000001eb0043c2b3005a
:10265c0083cf5000faff3a002100200001087800d7
:10266c00000db0000008eb0002007800000006002e
:10267c00f5ff3700a2c2b30082cf50002500320014
:10268c00230d2000808141001301780044062000b6
:10269c00840f5100150032000200400001489800e0
:1026ac008209e80000000500e7ff3700c2c2b30052
:1026bc0082cf500020003200020d200000014100aa
:1026cc0092017800e68f51000d003200a4c2b300d5
:1026dc0084cf5000220032000300400021409800bb
:1026ec000309e80000000500d7ff370011002000a7
:1026fc00010878008009eb0000000500d2ff3700cc
:10270c0011002000010878000009eb000000050012
:10271c00cdff3700120020000208780090a890002e
:10272c0001004000680040000048eb000200780007
:10273c0000000600c4ff37003100200001087800bb
:10274c0080a89000810040008180e8008048eb0068
:10275c00200db0000008eb0000000500baff3700a8
:10276c001200200002087800830140008381e800f9
:10277c008049eb00680040000048eb000200780044
:10278c0000000600b0ff3700881f78008003780037
:10279c009701780093407800d0c2b30080cf5000ee
:1027ac002500320018002000b0c2b30080cf5000ca
:1027bc001f003200c6c2b3000000eb0086cf5000f1
:1027cc00110032000104e0000f0032000301e800a8
:1027dc00000278006a22b9008100fb00848040006e
:1027ec0004fd2f00010242008201780003017800f1
:1027fc00b240780086cf5000020032000104e000a5
:10280c00f4ff3a0008a0b900830b7800c1c2b300f2
:10281c0093cf1000020032004f0478000000060035
:10282c00830be8004f04780000000600fcff370023
:10283c00d3407800dfff3700d34078000084eb00f2
:10284c00dcff3700e8874700889fbe008a9fbe00e8
:10285c008c9fbe008e1f780080bf9f008000780088
:10286c001100780010447800d1c2b300814f54009d
:10287c0088003200b1c2b300814f54008b0032008b
:10288c000200200003f82300e2b79f00f3b79f007b
:10289c00ccc2b3008c4f54008a003200edc2b3009e
:1028ac008d4f54004a0032000804e00085003200cd
:1028bc008004e8000005eb008a0578000200200087
:1028cc00031224000a0278008b00780004037800bd
:1028dc00810378000600be00a5f90700800578008a
:1028ec00010578000800fb000003b100cf80de007a
:1028fc00a8f707000a02be000501780084017800e1
:10290c00d7f707000005be000900780039447800ad
:10291c008c4f5400040032008d4f54002e003200b6
:10292c000804e000e5ff3a00800078008fb99700ba
:10293c0081097800c0c2b300914f10001100320021
:10294c008a0078000b007800010178008001780083
:10295c006fb09700ffb0970085f9070080017800f1
:10296c000101780003007800820078004f0778009e
:10297c004f06be004f05be004f04be008f00b100d5
:10298c00000006008109e8008a0078000b0078003e
:10299c0001017800800178006fb09700ffb09700bc
:1029ac0073f90700800178000101780003007800ba
:1029bc00820078004f0778004f06be004f05be001e
:1029cc004f04be008f00b10000000600edff370081
:1029dc000005eb008a0578008000780051447800ef
:1029ec00cec2b3008e4f5400d0ff32000804e0007a
:1029fc00ceff32000086e8008004eb000df82300c7
:102a0c000200200003122400090278008d007800d7
:102a1c0004037800810378000600be0054f9070017
:102a2c0080047800810678000800fb000003b100e8
:102a3c00cf80de0057f70700090178008d01780080
:102a4c006cf807000001be000a0278008b007800c9
:102a5c0004037800810378000600be0080f70700ad
:102a6c000005be008c0078003c4478008e4f54006a
:102a7c00aeff32000804e000e1ff3a008fb9970086
:102a8c0081097800c0c2b300914f1000acff3a002e
:102a9c00bcff3700504478000200200003f82b00e4
:102aac00e2b79f00f3b79f0079ff370050447800de
:102abc000200200003f82300e2b79f00f3b79f0049
:102acc0073ff37000005eb008a0578008000780062
:102adc0096ff37008460a9000021ef0010088800e1
:102aec00e3806000c408dd00f0fc2f000401b60098
:102afc00008070002008880005e1a8000000060096
:102b0c0084c0a9000621ef0060088800e380600003
:102b1c00c408dd00f0fc2f001001b600008070002e
:102b2c008008880011e1a8000000060084e0a900dc
:102b3c000a21ef0070088800e3806000c408dd0003
:102b4c00f0fc2f001201b600008070009008880085
:102b5c0013e1a8000000060086a0a9001421ef00d4
:102b6c00d0088800e3806000c408dd00f0fc2f0072
:102b7c001e01b60000807000f00888001fe1a8005c
:102b8c000000060086c0a9001821ef00e0088800ac
:102b9c00e3806000c408dd00f0fc2f002001b600cb
:102bac00008070000009880021e1a80000000600e8
:102bbc000400fa00889fbe00000478003002200058
:102bcc00808f50001c003400c0112000808f5000fa
:102bdc0047003c00020020000310240019002000d4
:102bec006108b900c2bf9f00d3bf9f00e9f6070080
:102bfc004fb99700dfb99700fef707006266260011
:102c0c00634e2400daf80700a6f60700e30f540021
:102c1c0019003200e30f540024003400e40f540078
:102c2c004b003200e50f54003c0032004f04be0054
:102c3c000080fa00000006000200200003f82300c8
:102c4c008004eb006108b900c2bf9f00d3bf9f0096
:102c5c00d0f607004fb99700dfb99700e5f70700ea
:102c6c0062662600634e2400c1f807008df607004b
:102c7c00e30f5400e7ff3a0084e0a9000a21ef00bb
:102c8c0070088800c44cdd00f0fc2f001201b60067
:102c9c00008074009008880013e1a8004f04be0067
:102cac000080fa0000000600e3ff3700e10f54003b
:102cbc0034003200e20f5400dcff3a0084c0a9005b
:102ccc000621ef0060088800c44cdd00f0fc2f00ea
:102cdc001001b600008074008008880011e1a80083
:102cec004f04be000080fa0000000600d2ff37003f
:102cfc00308e2000808f500004003c000200200029
:102d0c000328240029002000b5ff37000200200012
:102d1c000338240039002000b1ff370086c0a90019
:102d2c001821ef00e0088800c44cdd00f0fc2f00f7
:102d3c002001b600008074000009880021e1a80081
:102d4c004f04be000080fa0000000600baff3700f6
:102d5c0086a0a9001421ef00d0088800c44cdd0027
:102d6c00f0fc2f001e01b60000807400f0088800f3
:102d7c001fe1a8004f04be000080fa00000006000e
:102d8c00adff37008460a9000021ef001008880017
:102d9c00c44cdd00f0fc2f000401b6000080740070
:102dac002008880005e1a8004f04be000080fa004e
:102dbc0000000600a0ff3700e30f500006003200b1
:102dcc0009003400e40f500013003200e50f5000ee
:102ddc00150032000000060084e0ab00feff32005c
:102dec0084e0a90000000600e10f5000060032004c
:102dfc00e20f5000f7ff3a0084c0ab00feff320038
:102e0c0084c0a900000006008460ab00feff320005
:102e1c008460a9000000060086a0ab00feff320013
:102e2c0086a0a9000000060086c0ab00feff3200a1
:102e3c0086c0a90000000600881f780000047800f6
:102e4c00080078005aff070008007800daff070036
:102e5c004f047800000006000400fa00881f780078
:102e6c008a9fbe008c9fbe00000478000205be0045
:102e7c0094bf9f00a5bf9f001806be000c00be00ab
:102e8c0004f607000000e000160035001fb997009b
:102e9c00afb997000c00be0000f607000000e00080
:102eac00090034001fb89700afb89700008cbe0023
:102ebc00100020004f06be004f05be004f047800e6
:102ecc000080fa00000006000000eb004f06be0078
:102edc004f05be004f0478000080fa000000060089
:102eec00f9ff37000a8cbe00100020004f06be0010
:102efc004f05be004f0478000080fa000000060069
:102f0c00f1ff3700889fbe008a9fbe008c9fbe00d9
:102f1c000005be0082047800030478000406be009d
:102f2c0009017800880178000a00be00d9f5070075
:102f3c000000e000070035000c01be000a00be00d6
:102f4c00d6f507000000e00009003c008a04780078
:102f5c000b0478000801be000300780082007800a2
:102f6c004f06be004f05be004f04be000000060019
:102f7c008c0478000d0478000801be000300780072
:102f8c00820078004f06be004f05be004f04be0005
:102f9c0000000600f6ff3700e6874700889fbe005a
:102fac008a9fbe008c9fbe008e1f78000006be005c
:102fbc0002047800030578000800780059fa07002d
:102fcc00800544000a00e000520034000000eb00d1
:102fdc00190020006a49b900820478000000e8005a
:102fec008a0f5000fbff3a006148b900e9f5070071
:102ffc00f0b79f0081bf9f001ec0b3006011b800e6
:10300c000c00be00a3f507000000e0003e003500f8
:10301c000047eb000200200003f823000c00be0068
:10302c00d3f707000006be000c00be009df507009c
:10303c00000478000a00e000170034007fb197000c
:10304c008fb997008c0278000d027800050078008b
:10305c0084007800c6f7070092f5070011000900fc
:10306c000900d8000b0078008a835500d6cc2c00c0
:10307c000609b8004319de006a12b90084805000ba
:10308c0003c3b30003e0400082007800870f5000b8
:10309c00f7ff3a008a855500e0c2b300f0fd9f00af
:1030ac008b85e900746626000b00780004c1b9001a
:1030bc004299de00cfc0de00810051006a09b900e0
:1030cc00020454008005780002c3b300825544000a
:1030dc00010478000800e000f3ff3c000e04e0005f
:1030ec00030032000b007800d1c2b3000148780015
:1030fc004f0778004f06be004f05be004f04be00c0
:10310c006f00b100000006000200200003f82b0045
:10311c00c2ff37000000200001f82300f0b79f0029
:10312c0081bf9f0019002000b3ff37008001780099
:10313c0081197800820978008000eb00640140005e
:10314c000109780066014000010978006800400020
:10315c00010878000000060010007800ccf9370058
:10316c00e4014000000178000082eb00930278003b
:10317c00d28f52000b003200660240001000780023
:10318c001400400001487800120178001400e80097
:10319c00110009000200d800010a78009309e80028
:1031ac000002eb000400780000000600889fbe00bf
:1031bc008a1f780000057800810478008901780066
:1031cc000001eb000202e8003304e00004003200ce
:1031dc00040178000202e8003304e000fcff3a002e
:1031ec008a037800640445005700780018025000e8
:1031fc008081eb00820f5200110035000200e000cc
:10320c000d0034000002eb00e60145009a00780046
:10321c0093824000b94a7800970278001303e800c3
:10322c00110009000503d800810978000402e800a8
:10323c00820f5200f5ff3a00180c41008001eb00a0
:10324c00030078004f0578004f04be000000060014
:10325c00640140008001eb001200e0000b00320022
:10326c00e8014000900278001382420094487800f4
:10327c00100290001300e800110009000400d800af
:10328c00810978001209e90013002000030078007e
:10329c000000060022a2a8002342a9003000200052
:1032ac002222b70030fe2f002202b6008001b300ac
:1032bc001011880021e2a800000006002022ab00bb
:1032cc00feff3a00020c2000ef0f500001003c0002
:1032dc0002082000f3002800030060000d003300fa
:1032ec000000410020118800114078000004e0002b
:1032fc00070032002022ab00feff3a000000fb006a
:10330c0020118800514078000004e000f9ff3a00d9
:10331c00000006000000e90003ff2f000080710090
:10332c000000e800000041002011880011407800e6
:10333c000004e000efff3a00f5ff37000000fa0050
:10334c00881f78000f047800638140000200a10000
:10335c0082874700880278000100e00007003400f3
:10336c00880178000001eb0004c2b3008459780096
:10337c000201e800810f5100fcff3a0081804200fd
:10338c008048eb0085007800ccff070088077800a8
:10339c004f0478000080fa00000006002022ab00e9
:1033ac00feff3a00010c2000ef0f50000600340025
:1033bc00f20028000200600007003300008040008b
:1033cc00201188000000060001082000f2002800ef
:1033dc0002006000f9ff3b000000e90002ff2f0033
:1033ec00000071000000e8000080400020118800ff
:1033fc0000000600f4ff3700889fbe0081047800af
:10340c00020478006101b90000202c00110020009a
:10341c0091f407000000e900f010880017e2a80002
:10342c001942a800f0f32f001802b6000070a0009b
:10343c00c010880019e2a8008f00a8008f20a800f7
:10344c00094d8800184d88004f04be00000006008e
:10345c008f00a9001802ab0005003200e1108000bb
:10346c00004d80003eff07001802ab00fbff3a0046
:10347c008f00a80000000600f5ff07001822ab0023
:10348c00010032001822a900000006000200fa0018
:10349c008f20a9001922ab000a003a008f80e900a6
:1034ac00104d80006aff07000000e00005003200ac
:1034bc00eff897000100fb00d01088001922ab0038
:1034cc00f6ff32008f20a8000080fa0000000600f2
:1034dc0080007800104d800034ff0700e10f4000a1
:1034ec0001003200e9ff0700000006001822ab00c3
:1034fc00010032001822a90000000600889fbe00bf
:10350c00c8962000c99920009800e80008007800af
:10351c0001187800908f500005003d0066044400af
:10352c00890f5400f8ff3a004f04be00000006005b
:10353c002800900000000100000ceb006604440021
:10354c00890f5400f0ff3a00f7ff3700f04c880069
:10355c00e14c88006a29ef0000000600881f780003
:10356c0000047800544b8000e34c800011000900eb
:10357c008300d8008000fd006623b9008601780026
:10358c00c596200082b27900e296200001b1790044
:10359c000197200088b079000402e800544b8800a1
:1035ac004f04780000000600e14c8000f04c8000d5
:1035bc007ffd0700d1ff0700f04c8000fefd0700e7
:1035cc00ceff0700f04c8000fbfd0700f9ff370031
:020000040000fa
:1035dc0000080000060100000000000006090000c1
:1035ec006400000002000000302e30003b20300050
:1035fc002e3000000000000000302e00303b200078
:10360c00302e3000000000000000ff00ff01000021
:10361c00244d4300414c45002c00000000000000ec
:10362c00000000000000000000000000244d4300da
:10363c0054454d002c000000000000000000240048
:10364c004d434600424b2c00302e30002c302e00c7
:10365c00302c30002a000000000024004d434100b3
:10366c00434b2c0000000000000000000000000094
:10367c006a0900003600000000000000a0090000ec
:10368c000400000000000000a4090000020000007b
:10369c0000000000a609000002000000000000006d
:0436ac00000000001a
:020000040000fa
:0200000401f009
:04000000f4bf000049
:020000040000fa
:0200000401f009
:04000400ff7f00007a
:020000040000fa
:0200000401f009
:04000800ffff0000f6
:020000040000fa
:0200000401f009
:04001400ffffff00eb
:020000040000fa
:0200000401f009
:04001800ffff0000e6
:00000001FF
